:103800000C94571C0C94741C0C94741C0C94741C15
:103810000C94741C0C94741C0C94741C0C94741CE8
:103820000C94741C0C94741C0C94741C0C94741CD8
:103830000C94741C0C94741C0C94741C0C94741CC8
:103840000C94741C0C94741C0C94741C0C94741CB8
:103850000C94741C0C94741C0C94741C0C94741CA8
:103860000C94741C0C94741C0A0D3A200041546D85
:10387000656761424F4F54202F2048657862726916
:10388000676874202D202843292070746573617245
:10389000696B202D203133303631370A0D00141E6C
:1038A0009406100014415652204953501000112420
:1038B0001FBECFEFD4E0DEBFCDBF11E0A0E0B1E08E
:1038C000E6E8FFE302C005900D92A030B107D9F7FA
:1038D00012E0A0E0B1E001C01D92A730B107E1F70E
:1038E0000E94031D0C94C11F0C94001C80910001C8
:1038F0008F5F80930001853019F4E0E0F0E00995D6
:103900000895EF92FF920F931F93CF93DF93EE24CE
:10391000FF248701C0E0D0E010C00894E11CF11C36
:10392000011D111D81E2E81681EAF80687E008070B
:1039300080E0180710F0FE0109958091C00087FF14
:10394000ECCF8091C600DF91CF911F910F91FF9036
:10395000EF9008950E94811C982F8091C00085FFF0
:10396000FCCF9093C600892F08951F930E94AA1C34
:10397000182F813614F0175503C080330CF0105304
:103980000E94AA1C813614F0875503C080330CF0C6
:1039900080531295107F810F1F9108951F93182F48
:1039A0000E94811C8032A9F48091C00085FFFCCF69
:1039B00084E18093C6008091C00085FFFCCF109306
:1039C000C6008091C00085FFFCCF80E18093C600D7
:1039D00002C00E94761C1F9108950E94811C8032B3
:1039E00079F48091C00085FFFCCF84E18093C6000C
:1039F0008091C00085FFFCCF80E18093C6000895D0
:103A00000E94761C08957F928F929F92AF92BF92F0
:103A1000CF92DF92EF92FF920F931F93CF93DF939A
:103A200024B714BE8091600088618093600010927A
:103A3000600030E0F901E270F07021FF099589E142
:103A40008093C4001092C50088E18093C10086E095
:103A50008093C2005098589A559A21E048EC50E063
:103A600010C05D9A88EE93E0FA013197F1F7019763
:103A7000D9F75D9888EE93E0FA013197F1F7019755
:103A8000D9F7215070F774E1F72E60E1E62EDD24BE
:103A9000D3940E94811C803309F45DC0813391F47A
:103AA0000E94811C803209F069C2E4EAF8E306C092
:103AB0008091C00085FFFCCF9093C600959199231B
:103AC000B9F7E7CF803431F40E94811C863808F4BE
:103AD00042C028C0813499F40E94811C803811F4BE
:103AE00082E0ADC1813811F481E0A9C1823811F4BE
:103AF00080E1A5C1883909F0A1C183E0A0C1823469
:103B000039F414E102C00E94811C1150E0F723C077
:103B1000853459F40E94811C0E94811C0E94811CE2
:103B20000E94811C0E94811C16C08035A1F0823544
:103B300091F0813531F40E94ED1C88E080936000A3
:103B4000FFCF853559F40E94811C809301010E94AA
:103B5000811C809302010E94ED1C9BCF8635E1F40D
:103B60000E94811C803339F00E94811C0E94811CBC
:103B70000E94811C63C10E94811C0E94811C182F1D
:103B80000E94811C112311F48EE159C1113011F4EE
:103B900084E955C186E053C1843609F0D2C00E9441
:103BA000811C809304010E94811C809303018091F9
:103BB00005018E7F809305010E94811C853429F4C4
:103BC0008091050181608093050100E010E008C04C
:103BD0000E94811CF801EA5FFE4F80830F5F1F4F38
:103BE00080910301909104010817190788F30E943E
:103BF000811C803209F0C2C18091050180FF2BC079
:103C00002091010130910201220F331F30930201F4
:103C100020930101609103017091040140E050E0A4
:103C200010C0F999FECFCA01820F931F92BD81BDCA
:103C3000FA01EA5FFE4F808180BDFA9AF99A4F5FE0
:103C40005F4F4617570768F3260F371F309302015F
:103C5000209301016BC0809102018823880F880B9B
:103C60008D21809306028091010190910201880FBD
:103C7000991F90930201809301018091030180FFBD
:103C800009C0809103019091040101969093040171
:103C900080930301F894F999FECF1127E091010177
:103CA000F0910201C6E0D1E08091030190910401FE
:103CB000103091F40091570001700130D9F303E006
:103CC00000935700E8950091570001700130D9F337
:103CD00001E100935700E895099019900091570071
:103CE00001700130D9F301E000935700E895139576
:103CF000103498F011270091570001700130D9F36A
:103D000005E000935700E8950091570001700130DD
:103D1000D9F301E100935700E8953296029709F034
:103D2000C7CF103011F00296E5CF11248091C0006A
:103D300085FFFCCFF092C6008091C00085FFFCCFCC
:103D400064C0843709F064C00E94811C8093040120
:103D50000E94811C809303018091010190910201D6
:103D6000880F991F90930201809301010E94811C8A
:103D700090910501853411F4916001C09E7F90936C
:103D800005010E94811C803209F083CE8091C00021
:103D900085FFFCCFF092C600A0910301B091040111
:103DA00080910501782F7170682F66956170209160
:103DB000010130910201F90140E050E019C0772380
:103DC00059F0F999FECFF2BDE1BDF89A90B5809116
:103DD000C00085FFFCCF07C0662339F49491809121
:103DE000C00085FFFCCF9093C6004F5F5F4F3196B8
:103DF0004A175B0720F32A0F3B1F309302012093E1
:103E000001018091C00085FFFCCFE092C60041CE49
:103E1000853791F40E94811C803209F0AFC0EEE931
:103E2000F8E306C08091C00085FFFCCF9093C600E8
:103E300095919923B9F72DCE863721F480E00E9421
:103E4000CE1C27CE813209F099C00E94811C81329C
:103E500009F01FCE0E94811C813209F01ACE5D9AB2
:103E6000EDE6F8E306C08091C00085FFFCCF90939B
:103E7000C60095919923B9F7AA24BB242DE3722E8D
:103E800090E3892E81E3982EE8E6F8E306C080915E
:103E9000C00085FFFCCF9093C60095919923B9F798
:103EA0000E94AA1C843791F44D9908C05D9A8091B4
:103EB000C00085FFFCCF9092C600E6CF5D98809150
:103EC000C00085FFFCCF8092C600DECF823779F537
:103ED0000E94AA1C0E94B51C182F0E94B51C982F86
:103EE0008091C00085FFFCCF7092C600D12ECC24FB
:103EF000F601E90FF11D8081982F9595959595957F
:103F00009595905D8F708A301CF0282F295A02C039
:103F1000282F205D8091C00085FFFCCF9093C600C4
:103F20008091C00085FFFCCF2093C600ADCF8737BE
:103F300099F40E94AA1C0E94B51C182F0E94B51C5F
:103F4000082F0E94AA1C0E94B51CF12EEE24F70136
:103F5000E00FF11D808398CF853751F40E94811CBA
:103F6000982F8091C00085FFFCCF9093C600F6CFBC
:103F70008A3609F089CFF501099586CF0E94761C13
:063F800088CDF894FFCF8C
:0400000300003800C1
:00000001FF
