:103800000C94571C0C94741C0C94741C0C94741C15
:103810000C94741C0C94741C0C94741C0C94741CE8
:103820000C94741C0C94741C0C94741C0C94741CD8
:103830000C94741C0C94741C0C94741C0C94741CC8
:103840000C94741C0C94741C0C94741C0C94741CB8
:103850000C94741C0C94741C0C94741C0C94741CA8
:103860000C94741C0C94741C0A0D3A200041546D85
:10387000656761424F4F54202F2048657862726916
:10388000676874202D202843292070746573617245
:10389000696B202D203133303631370A0D00141E6C
:1038A0009406100014415652204953501000112420
:1038B0001FBECFEFD4E0DEBFCDBF11E0A0E0B1E08E
:1038C000EEE8FFE302C005900D92A230B107D9F7F0
:1038D00012E0A2E0B1E001C01D92A930B107E1F70A
:1038E0000E94071D0C94C51F0C94001C80910201BE
:1038F0008F5F80930201853019F4E0E0F0E00995D4
:103900000895EF92FF920F931F93CF93DF93EE24CE
:10391000FF248701C0E0D0E011C080910001E80ED3
:10392000F11C011D111D81E2E81681EAF80687E00D
:10393000080780E0180710F0FE0109958091C0008B
:1039400087FFEBCF8091C600DF91CF911F910F9140
:10395000FF90EF9008950E94811C982F8091C000E5
:1039600085FFFCCF9093C600892F08951F930E9476
:10397000AB1C81361CF0182F175506C080331CF085
:10398000182F105301C0182F0E94AB1C813614F061
:10399000875503C080330CF080531295107F810F40
:1039A0001F9108951F93182F0E94811C8032A9F443
:1039B0008091C00085FFFCCF84E18093C600809198
:1039C000C00085FFFCCF1093C6008091C00085FF2A
:1039D000FCCF80E18093C60002C00E94761C1F913C
:1039E00008950E94811C803279F48091C00085FF87
:1039F000FCCF84E18093C6008091C00085FFFCCF9E
:103A000080E18093C60008950E94761C08957F92FD
:103A10008F929F92AF92BF92CF92DF92EF92FF92DE
:103A20000F931F93CF93DF9324B714BE8091600050
:103A30008861809360001092600030E0F901E270CC
:103A4000F07021FF099589E18093C4001092C500B0
:103A500088E18093C10086E08093C2005098589A14
:103A6000559A21E048EC50E010C05D9A88EE93E052
:103A7000FA013197F1F70197D9F75D9888EE93E055
:103A8000FA013197F1F70197D9F7215070F774E1F6
:103A9000F72E60E1E62EDD24D3940E94811C803352
:103AA00009F45DC0813391F40E94811C803209F0D9
:103AB00069C2E4EAF8E306C08091C00085FFFCCF4C
:103AC0009093C60095919923B9F7E7CF803431F4EC
:103AD0000E94811C863808F442C028C0813499F4C1
:103AE0000E94811C803811F482E0ADC1813811F44C
:103AF00081E0A9C1823811F480E1A5C1883909F0BB
:103B0000A1C183E0A0C1823439F414E102C00E9453
:103B1000811C1150E0F723C0853459F40E94811CA8
:103B20000E94811C0E94811C0E94811C0E94811C99
:103B300016C08035A1F0823591F0813531F40E94B4
:103B4000F11C88E080936000FFCF853559F40E9416
:103B5000811C809303010E94811C809304010E94B8
:103B6000F11C9BCF8635E1F40E94811C803339F033
:103B70000E94811C0E94811C0E94811C63C10E94C2
:103B8000811C0E94811C182F0E94811C112311F49A
:103B90008EE159C1113011F484E955C186E053C159
:103BA000843609F0D2C00E94811C809306010E94D5
:103BB000811C80930501809107018E7F809307010E
:103BC0000E94811C853429F48091070181608093D3
:103BD000070100E010E008C00E94811CF801E85FC6
:103BE000FE4F80830F5F1F4F80910501909106016A
:103BF0000817190788F30E94811C803209F0C2C19E
:103C00008091070180FF2BC02091030130910401B6
:103C1000220F331F309304012093030160910501AB
:103C20007091060140E050E010C0F999FECFCA0142
:103C3000820F931F92BD81BDFA01E85FFE4F808124
:103C400080BDFA9AF99A4F5F5F4F4617570768F39E
:103C5000260F371F30930401209303016BC080911E
:103C600004018823880F880B8D218093080280919E
:103C7000030190910401880F991F90930401809390
:103C800003018091050180FF09C080910501909199
:103C9000060101969093060180930501F894F99925
:103CA000FECF1127E0910301F0910401C8E0D1E0BB
:103CB0008091050190910601103091F40091570018
:103CC00001700130D9F303E000935700E8950091AB
:103CD000570001700130D9F301E100935700E895D6
:103CE000099019900091570001700130D9F301E05B
:103CF00000935700E8951395103498F01127009120
:103D0000570001700130D9F305E000935700E895A2
:103D10000091570001700130D9F301E10093570081
:103D2000E8953296029709F0C7CF103011F002964D
:103D3000E5CF11248091C00085FFFCCFF092C60032
:103D40008091C00085FFFCCF64C0843709F064C057
:103D50000E94811C809306010E94811C80930501B2
:103D60008091030190910401880F991F90930401A1
:103D7000809303010E94811C90910701853411F406
:103D8000916001C09E7F909307010E94811C803248
:103D900009F083CE8091C00085FFFCCFF092C60071
:103DA000A0910501B091060180910701782F7170F3
:103DB000682F669561702091030130910401F9012B
:103DC00040E050E019C0772359F0F999FECFF2BDD9
:103DD000E1BDF89A90B58091C00085FFFCCF07C087
:103DE000662339F494918091C00085FFFCCF9093B5
:103DF000C6004F5F5F4F31964A175B0720F32A0FCB
:103E00003B1F30930401209303018091C00085FF84
:103E1000FCCFE092C60041CE853791F40E94811C10
:103E2000803209F0AFC0EEE9F8E306C08091C0002F
:103E300085FFFCCF9093C60095919923B9F72DCEBD
:103E4000863721F480E00E94D21C27CE813209F00F
:103E500099C00E94811C813209F01FCE0E94811CF2
:103E6000813209F01ACE109200015D9AEDE6F8E376
:103E700006C08091C00085FFFCCF9093C60095914D
:103E80009923B9F7AA24BB242DE3722E90E3892E3F
:103E900081E3982EE8E6F8E306C08091C00085FF34
:103EA000FCCF9093C60095919923B9F70E94AB1C63
:103EB000843791F44D9908C05D9A8091C00085FFC8
:103EC000FCCF9092C600E6CF5D988091C00085FF40
:103ED000FCCF8092C600DECF823789F50E94AB1CF2
:103EE0000E94B61C182F0E94B61C982F8091C0000B
:103EF00085FFFCCF7092C600D12ECC24F601E90FCD
:103F0000F11D8081982F92959F709A3010F0995AE8
:103F100001C0905D8F708A3018F0E82FE95A02C016
:103F2000E82FE05D8091C00085FFFCCF9093C60034
:103F30008091C00085FFFCCFE093C600ABCF8737F0
:103F400099F40E94AB1C0E94B61C182F0E94B61C4C
:103F5000082F0E94AB1C0E94B61CF12EEE24F70124
:103F6000E00FF11D808396CF853731F481E0809397
:103F700000010E94AB1CFDCF8A3609F08BCFF50102
:0E3F8000099588CF0E94761C88CDF894FFCF5B
:023F8E00010030
:0400000300003800C1
:00000001FF
