:103800000C94341C0C94511C0C94511C0C94511CA1
:103810000C94511C0C94511C0C94511C0C94511C74
:103820000C94511C0C94511C0C94511C0C94511C64
:103830000C94511C0C94511C0C94511C0C94511C54
:103840000C94511C0C94511C0C94511C0C94511C44
:103850000C94511C0C94511C0C94511C0C94511C34
:103860000C94511C0C94511C11241FBECFEFD4E0BA
:10387000DEBFCDBF11E0A0E0B1E0EEE5FEE302C0A7
:1038800005900D92A030B107D9F712E0A0E0B1E0A9
:1038900001C01D92A730B107E1F70E94BC1C0C9437
:1038A0002D1F0C94001C809100018F5F80930001FC
:1038B000853019F4E0E0F0E009950895EF92FF9269
:1038C0000F931F93CF93DF93EE24FF248701C0E073
:1038D000D0E010C00894E11CF11C011D111D81E213
:1038E000E81681EAF80687E0080780E0180710F07C
:1038F000FE0109958091C00087FFECCF8091C60042
:10390000DF91CF911F910F91FF90EF9008951F933A
:10391000182F0E945E1C8032A9F48091C00085FFA0
:10392000FCCF84E18093C6008091C00085FFFCCF6E
:103930001093C6008091C00085FFFCCF80E180938A
:10394000C60002C00E94531C1F9108950E945E1C75
:10395000803279F48091C00085FFFCCF84E18093B0
:10396000C6008091C00085FFFCCF80E18093C60037
:1039700008950E94531C08953F924F925F926F9258
:103980007F928F929F92AF92BF92CF92DF92EF92EF
:10399000FF920F931F93CF93DF9324B714BE8091B0
:1039A00060008861809360001092600030E0F9014F
:1039B000E270F07021FF099589E18093C4001092B4
:1039C000C50088E18093C10086E08093C2005098D2
:1039D000589A559A21E048EC50E010C05D9A88EE64
:1039E00093E0FA013197F1F70197D9F75D9888EEE6
:1039F00093E0FA013197F1F70197D9F7215070F769
:103A000024E1E22E9EE1592E84E9482E06E0302E74
:103A100010E1F12EDD24D394B1E4CB2EA6E5BA2E2D
:103A2000F2E5AF2EE0E29E2E79E4872E63E5762E56
:103A300050E5652E0E945E1C803309F485C08133F9
:103A4000D1F50E945E1C803209F004C28091C00052
:103A500085FFFCCFE092C6008091C00085FFFCCFBF
:103A6000C092C6008091C00085FFFCCFB092C60016
:103A70008091C00085FFFCCFA092C6008091C0005D
:103A800085FFFCCF9092C6008091C00085FFFCCFDF
:103A90008092C6008091C00085FFFCCF7092C60066
:103AA0008091C00085FFFCCF6092C6008091C0006D
:103AB00085FFFCCFC6C1803431F40E945E1C86387D
:103AC00008F442C028C0813499F40E945E1C8038FA
:103AD00011F482E0BCC1813811F481E0B8C18238B0
:103AE00011F480E1B4C1883909F0B0C183E0AFC1FD
:103AF000823439F414E102C00E945E1C1150E0F7D8
:103B000023C0853459F40E945E1C0E945E1C0E94F2
:103B10005E1C0E945E1C0E945E1C16C08035A1F0D7
:103B2000823591F0813531F40E94A61C88E08093A3
:103B30006000FFCF853559F40E945E1C809301011F
:103B40000E945E1C809302010E94A61C73CF8635E2
:103B5000E1F40E945E1C803339F00E945E1C0E94DA
:103B60005E1C0E945E1C72C10E945E1C0E945E1C54
:103B7000182F0E945E1C112311F48EE168C11130D0
:103B800011F484E964C186E062C1843609F0D2C0D0
:103B90000E945E1C809304010E945E1C80930301BE
:103BA000809105018E7F809305010E945E1C853403
:103BB00029F48091050181608093050100E010E007
:103BC00008C00E945E1CF801EA5FFE4F80830F5F11
:103BD0001F4F80910301909104010817190788F382
:103BE0000E945E1C803209F035C18091050180FF82
:103BF0002BC02091010130910201220F331F30931D
:103C0000020120930101609103017091040140E0E1
:103C100050E010C0F999FECFCA01820F931F92BDE8
:103C200081BDFA01EA5FFE4F808180BDFA9AF99A60
:103C30004F5F5F4F4617570768F3260F371F3093C4
:103C40000201209301016BC0809102018823880F3B
:103C5000880B8D21809306028091010190910201D1
:103C6000880F991F909302018093010180910301B5
:103C700080FF09C080910301909104010196909307
:103C8000040180930301F894F999FECF1127E09184
:103C90000101F0910201C6E0D1E080910301909111
:103CA0000401103091F40091570001700130D9F3F4
:103CB00003E000935700E895009157000170013030
:103CC000D9F301E100935700E8950990199000910C
:103CD000570001700130D9F301E000935700E895D7
:103CE0001395103498F0112700915700017001309E
:103CF000D9F305E000935700E89500915700017053
:103D00000130D9F301E100935700E895329602970C
:103D100009F0C7CF103011F00296E5CF1124809141
:103D2000C00085FFFCCFE092C6008091C00085FFF7
:103D3000FCCF87C0843709F062C00E945E1C80936C
:103D400004010E945E1C8093030180910101909107
:103D50000201880F991F90930201809301010E9434
:103D60005E1C90910501853411F4916001C09E7F25
:103D7000909305010E945E1C803209F05BCE809119
:103D8000C00085FFFCCFE092C600A0910301B09176
:103D9000040180910501782F7170682F669561701C
:103DA0002091010130910201F90140E050E019C079
:103DB000772359F0F999FECFF2BDE1BDF89A90B59D
:103DC0008091C00085FFFCCF07C0662339F4949131
:103DD0008091C00085FFFCCF9093C6004F5F5F4F7E
:103DE00031964A175B0720F32A0F3B1F30930201DD
:103DF000209301018091C00085FFFCCF22C0853750
:103E000019F50E945E1C803229F58091C00085FF63
:103E1000FCCFE092C6008091C00085FFFCCF50929D
:103E2000C6008091C00085FFFCCF4092C600809103
:103E3000C00085FFFCCF3092C6008091C00085FF96
:103E4000FCCFF092C600F6CD863721F480E00E94C8
:0E3E5000871CF0CD0E94531CEDCDF894FFCFDF
:0400000300003800C1
:00000001FF
