:103800000C94341C0C94511C0C94511C0C94511CA1
:103810000C94511C0C94511C0C94511C0C94511C74
:103820000C94511C0C94511C0C94511C0C94511C64
:103830000C94511C0C94511C0C94511C0C94511C54
:103840000C94511C0C94511C0C94511C0C94511C44
:103850000C94511C0C94511C0C94511C0C94511C34
:103860000C94511C0C94511C11241FBECFEFD4E0BA
:10387000DEBFCDBF11E0A0E0B1E0E8E9FFE302C0A8
:1038800005900D92A230B107D9F712E0A2E0B1E0A5
:1038900001C01D92AD30B107E1F70E942D1D0C94BF
:1038A000CA1F0C94001C982F959595959595959504
:1038B000905D8F708A307CF0282F295A8091C0004B
:1038C00085FFFCCF9093C6008091C00085FFFCCFA0
:1038D0002093C6000895282F205DF0CF982F809167
:1038E000C00085FFFCCF9093C6000895EF92FF9231
:1038F0000F931F93EE24FF2487018091C00087FD62
:1039000017C00894E11CF11C011D111D81E2E8168D
:1039100081EAF80687E0080780E0180770F3E09175
:103920000401F091050109958091C00087FFE9CF5E
:103930008091C6001F910F91FF90EF9008950E9413
:10394000761C982F8091C00085FFFCCF9093C60015
:1039500091362CF490330CF09053892F089597559D
:10396000892F08951F930E949F1C182F0E949F1C4F
:103970001295107F810F1F9108951F93182F882390
:1039800021F00E94761C1150E1F71F9108951F93BA
:10399000182F0E94761C803249F0809103018F5FBE
:1039A000809303018530C1F01F9108958091C0007C
:1039B00085FFFCCF84E18093C6008091C00085FF25
:1039C000FCCF1093C6008091C00085FFFCCF80E142
:1039D0008093C6001F910895E0910401F0910501C4
:1039E00009951F9108950E94761C803241F08091C4
:1039F00003018F5F80930301853081F008958091EA
:103A0000C00085FFFCCF84E18093C6008091C00098
:103A100085FFFCCF80E18093C6000895E09104010A
:103A2000F09105010995089548EC50E08823A1F034
:103A30002D9A28EE33E0FA013197F1F7215030400A
:103A4000D1F72D9828EE33E0FA013197F1F72150A4
:103A50003040D1F7815061F708953F924F925F92C5
:103A60006F927F928F929F92AF92BF92CF92DF928E
:103A7000EF92FF920F931F93CF93DF9394B714BEEF
:103A8000809160008861809360001092600091FFD7
:103A900007C289E18093C4001092C50088E1809339
:103AA000C10086E08093C2005098589A259A80E021
:103AB0000E94141D44E1F42E3EE1E32E24E9D22EAF
:103AC00096E0C92E80E1B82EAA24A39401E4902E9A
:103AD00016E5812EB2E57B2EA0E26A2EF9E45F2E78
:103AE000E3E54E2E70E5372E0E94761C8033B9F147
:103AF0008133C1F1803409F470C0813409F477C096
:103B0000823409F486C0853409F489C0803539F1DE
:103B1000823529F1813509F4A2C1853509F485C0C2
:103B2000863509F48DC0843609F42EC1843709F432
:103B3000C1C0853709F490C0863709F466C080910A
:103B400003018F5F80930301853071F6E0910401DA
:103B5000F091050109950E94761C803349F60E9478
:103B6000F31CC2CF0E94761C803249F78091C000BE
:103B700085FFFCCFF092C6008091C00085FFFCCF8E
:103B80009092C6008091C00085FFFCCF8092C60055
:103B90008091C00085FFFCCF7092C6008091C0006C
:103BA00085FFFCCF6092C6008091C00085FFFCCFEE
:103BB0005092C6008091C00085FFFCCF4092C600A5
:103BC0008091C00085FFFCCF3092C6008091C0007C
:103BD00085FFFCCFB092C60087CF0E94761C863846
:103BE00008F4BDCF0E94761C0E94F31C7DCF0E947A
:103BF000761C803809F45AC0813809F453C08238E1
:103C000009F433C1883909F449C080E00E94C71C17
:103C10006BCF84E10E94BD1C0E94F31C65CF85E040
:103C20000E94BD1C0E94F31C5FCF0E94761C8093F3
:103C300006010E94761C809307010E94F31C54CF5A
:103C40000E94761C803309F414C183E00E94BD1CDD
:103C500080E00E94C71C48CF0E94761C803209F089
:103C60006ECF8091C00085FFFCCFF092C60080919E
:103C7000C00085FFFCCFE092C6008091C00085FFA8
:103C8000FCCFD092C6008091C00085FFFCCFC092CF
:103C9000C6008091C00085FFFCCF9CCF83E00E94CE
:103CA000C71C22CF81E00E94C71C1ECF82E00E9469
:103CB000C71C1ACF0E94761C809309020E94761CB2
:103CC000809308028091060190910701880F991F47
:103CD00090930701809306010E94761C853409F4B5
:103CE000D9C080910C028E7F80930C020E94761CBA
:103CF000803209F0F9CE8091C00085FFFCCFF092B0
:103D0000C600009108021091090201151105B9F1D0
:103D100080910C02B82FB170A82FA695A170E091E8
:103D20000601F09107019F012F5F3F4FB90140E06D
:103D300050E0BB23A9F4AA2339F494918091C000E8
:103D400085FFFCCF9093C6004F5F5F4FCB0101967C
:103D5000F9014017510778F4BC012F5F3F4FE9CFBD
:103D6000F999FECFF2BDE1BDF89A90B58091C000FF
:103D700085FFFCCFE7CF7093070160930601809128
:103D8000C00085FFFCCF26CF0E94761C80930902DD
:103D90000E94761C8093080280910C028E7F809393
:103DA0000C020E94761C853429F480910C028160FB
:103DB00080930C028091080290910902892B89F06E
:103DC00000E010E00E94761CF801E85FFE4F80835F
:103DD0000F5F1F4F80910802909109020817190781
:103DE00088F30E94761C803209F0A9CE80910C02E3
:103DF00080FF5CC04091060150910701440F551FA0
:103E000050930701409306016091080270910902E6
:103E100061157105C9F0E8E0F1E09A01DB01AE0F30
:103E2000BF1FF999FECF32BD21BD819180BDFA9AA5
:103E3000F99A2F5F3F4FEA17FB0799F7460F571F75
:103E400050930701409306018091C00085FFFCCF8D
:103E5000F092C6008091C00085FFFCCFBBCE0E94CF
:103E6000F31C88E080936000FFCF80E10E94C71CB4
:103E70003BCE0E94761C0E94761C182F0E94761C56
:103E8000112309F483C0113009F47CC086E00E943C
:103E9000C71C2ACE80910C02816080930C0226CF31
:103EA000E0910401F09105010995F3CD809107019E
:103EB0008823880F880B8A2180930B02809106014A
:103EC00090910701880F991F909307018093060135
:103ED0008091080280FF09C0809108029091090238
:103EE00001969093090280930802F894F999FECF05
:103EF0001127E0910601F0910701C8E0D1E080911F
:103F0000080290910902103091F40091570001705D
:103F10000130D9F303E000935700E8950091570072
:103F200001700130D9F301E100935700E895099041
:103F300019900091570001700130D9F301E000930E
:103F40005700E8951395103498F011270091570009
:103F500001700130D9F305E000935700E895009116
:103F6000570001700130D9F301E100935700E89543
:103F70003296029709F0C7CF103011F00296E5CFC4
:103F8000112462CF84E90E94C71CAECD8EE10E944D
:083F9000C71CAACDF894FFCF75
:023F98008000A7
:0400000300003800C1
:00000001FF
