:103800000C94341C0C94511C0C94511C0C94511CA1
:103810000C94511C0C94511C0C94511C0C94511C74
:103820000C94511C0C94511C0C94511C0C94511C64
:103830000C94511C0C94511C0C94511C0C94511C54
:103840000C94511C0C94511C0C94511C0C94511C44
:103850000C94511C0C94511C0C94511C0C94511C34
:103860000C94511C0C94511C11241FBECFEFD4E0BA
:10387000DEBFCDBF11E0A0E0B1E0EAE8FFE302C0A7
:1038800005900D92A634B107D9F712E0A6E4B1E095
:1038900001C01D92AD34B107E1F70E94E31C0C9406
:1038A000C31F0C94001C809146018F5F80934601DA
:1038B000853019F4E0E0F0E009950895EF92FF9269
:1038C0000F931F93CF93DF93EE24FF248701C0E073
:1038D000D0E010C00894E11CF11C011D111D81E213
:1038E000E81681EAF80687E0080780E0180710F07C
:1038F000FE0109958091C00087FFECCF8091C60042
:10390000DF91CF911F910F91FF90EF9008951F933A
:103910000E945E1C182F8091C00085FFFCCF109381
:10392000C600113614F0175503C010330CF01053B5
:103930000E945E1C982F8091C00085FFFCCF909361
:10394000C600913614F0975503C090330CF0905395
:103950001295107F892F810F1F9108951F93182FA3
:103960000E945E1C8032A9F48091C00085FFFCCFCC
:1039700084E18093C6008091C00085FFFCCF109346
:10398000C6008091C00085FFFCCF80E18093C60017
:1039900002C00E94531C1F9108950E945E1C803239
:1039A00079F48091C00085FFFCCF84E18093C6004C
:1039B0008091C00085FFFCCF80E18093C600089510
:1039C0000E94531C08957F928F929F92AF92BF9254
:1039D000CF92DF92EF92FF920F931F93CF93DF93DB
:1039E00024B714BE809160008861809360001092BB
:1039F000600030E0F901E270F07021FF099589E183
:103A00008093C4001092C50088E18093C10086E0D5
:103A10008093C2005098589A559A21E048EC50E0A3
:103A200010C05D9A88EE93E0FA013197F1F70197A3
:103A3000D9F75D9888EE93E0FA013197F1F7019795
:103A4000D9F7215070F774E1F72E60E1E62EDD24FE
:103A5000D3940E945E1C803309F45EC0813399F4D4
:103A60000E945E1C803209F08BC2ECE3F1E007C0DB
:103A70008091C00085FFFCCF31969093C600908165
:103A80009923B1F7E6CF803431F40E945E1C86386A
:103A900008F442C028C0813499F40E945E1C80382A
:103AA00011F482E0AEC1813811F481E0AAC18238FC
:103AB00011F480E1A6C1883909F0A2C183E0A1C157
:103AC000823439F414E102C00E945E1C1150E0F708
:103AD00023C0853459F40E945E1C0E945E1C0E9423
:103AE0005E1C0E945E1C0E945E1C16C08035A1F008
:103AF000823591F0813531F40E94CD1C88E08093AD
:103B00006000FFCF853559F40E945E1C8093470109
:103B10000E945E1C809348010E94CD1C9ACF86357E
:103B2000E1F40E945E1C803339F00E945E1C0E940A
:103B30005E1C0E945E1C64C10E945E1C0E945E1C92
:103B4000182F0E945E1C112311F48EE15AC111300E
:103B500011F484E956C186E054C1843609F0D2C01C
:103B60000E945E1C80934A010E945E1C8093490162
:103B700080914B018E7F80934B010E945E1C8534A7
:103B800029F480914B01816080934B0100E010E0AB
:103B900008C00E945E1CF801E45BFE4F80830F5F4B
:103BA0001F4F8091490190914A010817190788F326
:103BB0000E945E1C803209F0E3C180914B0180FFBE
:103BC0002BC02091470130914801220F331F3093C1
:103BD0004801209347016091490170914A0140E0FA
:103BE00050E010C0F999FECFCA01820F931F92BD19
:103BF00081BDFA01E45BFE4F808180BDFA9AF99A9B
:103C00004F5F5F4F4617570768F3260F371F3093F4
:103C10004801209347016BC0809148018823880F99
:103C2000880B8D2180934C0280914701909148012F
:103C3000880F991F90934801809347018091490113
:103C400080FF09C08091490190914A0101969093AB
:103C50004A0180934901F894F999FECF1127E09128
:103C60004701F0914801CCE4D1E080914901909165
:103C70004A01103091F40091570001700130D9F3DE
:103C800003E000935700E895009157000170013060
:103C9000D9F301E100935700E8950990199000913C
:103CA000570001700130D9F301E000935700E89507
:103CB0001395103498F011270091570001700130CE
:103CC000D9F305E000935700E89500915700017083
:103CD0000130D9F301E100935700E895329602973D
:103CE00009F0C7CF103011F00296E5CF1124809172
:103CF000C00085FFFCCFF092C6008091C00085FF18
:103D0000FCCF64C0843709F064C00E945E1C8093BD
:103D10004A010E945E1C8093490180914701909165
:103D20004801880F991F90934801809347010E9492
:103D30005E1C90914B01853411F4916001C09E7F0F
:103D400090934B010E945E1C803209F082CE8091DC
:103D5000C00085FFFCCFF092C600A0914901B09150
:103D60004A0180914B01782F7170682F66956170C0
:103D70002091470130914801F90140E050E019C01D
:103D8000772359F0F999FECFF2BDE1BDF89A90B5CD
:103D90008091C00085FFFCCF07C0662339F4949161
:103DA0008091C00085FFFCCF9093C6004F5F5F4FAE
:103DB00031964A175B0720F32A0F3B1F30934801C7
:103DC000209347018091C00085FFFCCFE092C600A0
:103DD00040CE853799F40E945E1C803209F0D0C035
:103DE000E6E3F1E007C08091C00085FFFCCF31968B
:103DF0009093C60090819923B1F72BCE863721F49A
:103E000080E00E94AE1C25CE813209F0B9C00E942C
:103E10005E1C813209F01DCE0E945E1C813209F0C9
:103E200018CE559A5D98E5E0F1E007C08091C0009A
:103E300085FFFCCF31969093C60090819923B1F70E
:103E4000E0E0F1E0AA24BB242DE3722E90E3892E5A
:103E500081E3982E07C08091C00085FFFCCF31968A
:103E60009093C60090819923B1F70E945E1C982F11
:103E70008091C00085FFFCCF9093C600943791F4E9
:103E80004D9B08C05D988091C00085FFFCCF90924B
:103E9000C60073C05D9A8091C00085FFFCCF809200
:103EA000C6006BC09237B1F50E945E1C982F8091BE
:103EB000C00085FFFCCF9093C6000E94871C182F7E
:103EC0000E94871C982F8091C00085FFFCCF7092C4
:103ED000C600D12ECC24F601E90FF11D8081982F68
:103EE0009595959595959595905D8F708A301CF078
:103EF000282F295A02C0282F205D8091C00085FFFD
:103F0000FCCF9093C6008091C00085FFFCCF20932A
:103F1000C60033C0973709F50E945E1C982F809128
:103F2000C00085FFFCCF9093C6000E94871C082F1D
:103F30000E94871C182F0E945E1C982F8091C00041
:103F400085FFFCCF9093C6000E94871CF02EEE24C4
:103F5000F701E10FF11D808310C0953751F40E94E5
:103F60005E1C982F8091C00085FFFCCF9093C60007
:103F7000F6CF9A3611F4F5010995E0E0F1E072CF41
:0A3F80000E94531C66CDF894FFCF99
:103F8A000A0D3A200041546D656761424F4F542033
:103F9A002F20486578627269676874202D2028434B
:103FAA002920707465736172696B202D203133305A
:103FBA003631370A0D00141E940610001441565269
:063FCA00204953501000D5
:0400000300003800C1
:00000001FF
