:103800000C94341C0C94511C0C94511C0C94511CA1
:103810000C94511C0C94511C0C94511C0C94511C74
:103820000C94511C0C94511C0C94511C0C94511C64
:103830000C94511C0C94511C0C94511C0C94511C54
:103840000C94511C0C94511C0C94511C0C94511C44
:103850000C94511C0C94511C0C94511C0C94511C34
:103860000C94511C0C94511C11241FBECFEFD4E0BA
:10387000DEBFCDBF11E0A0E0B1E0E4E0FFE302C0B5
:1038800005900D92A030B107D9F712E0A0E0B1E0A9
:1038900001C01D92A730B107E1F70E94C81C0C942B
:1038A000801F0C94001CEF92FF920F931F93CF93F5
:1038B000DF93EE24FF248701C0E0D0E08091C000B8
:1038C00087FD14C00894E11CF11C011D111D81E24B
:1038D000E81681EAF80687E0080780E0180770F329
:1038E000FE0109958091C00087FFECCF8091C60052
:1038F000DF91CF911F910F91FF90EF9008951F934B
:10390000182F0E94531C803249F0809100018F5F74
:10391000809300018530C1F01F9108958091C0000F
:1039200085FFFCCF84E18093C6008091C00085FFB5
:10393000FCCF1093C6008091C00085FFFCCF80E1D2
:103940008093C6001F910895E0E0F0E009951F9173
:1039500008950E94531C803241F0809100018F5FD6
:1039600080930001853081F008958091C00085FF2B
:10397000FCCF84E18093C6008091C00085FFFCCF1E
:1039800080E18093C6000895E0E0F0E00995089595
:103990002F923F924F925F926F927F928F929F925F
:1039A000AF92BF92CF92DF92EF92FF920F931F934D
:1039B000CF93DF9324B714BE809160008861809319
:1039C00060001092600030E0F901E270F07021FFB9
:1039D00010C289E18093C4001092C50088E18093F1
:1039E000C10086E08093C2005098589A559A5D9A1B
:1039F00028EE33E048EC50E0CA010197F1F721507E
:103A00003040D1F75D9828EE33E048EC50E0CA0131
:103A10000197F1F721503040D1F7EE24FF2434E133
:103A2000D32E2EE1C22E94E9B92E86E0A82E00E115
:103A3000902E8824839411E4712EB6E56B2EA2E5B6
:103A40005A2EF0E24F2EE9E43E2E73E5272E0E9417
:103A5000531C803399F18133E1F1803409F475C04E
:103A6000813409F487C0823461F1853409F477C068
:103A7000803521F1823511F1813509F4B4C18535E4
:103A800009F488C0863509F490C0843609F43AC137
:103A9000843709F4CDC0853709F49EC0863709F410
:103AA00075C0809100018F5F80930001853079F6A9
:103AB000F70109950E94531C803369F60E94A91CE6
:103AC000C6CF13E10E94531C1150E0F70E94A91CBD
:103AD000BECF0E94531C803221F78091C00085FF29
:103AE000FCCFD092C6008091C00085FFFCCF7092C1
:103AF000C6008091C00085FFFCCF6092C600809117
:103B0000C00085FFFCCF5092C6008091C00085FFA9
:103B1000FCCF4092C6008091C00085FFFCCF309260
:103B2000C6008091C00085FFFCCF2092C600809126
:103B3000C00085FFFCCF80E58093C6008091C00067
:103B400085FFFCCF9092C60082CF0E94531C86381E
:103B500008F4B4CF0E94531C0E94A91C78CF0E9485
:103B6000531C0E94531C0E94531C0E94531C0E9411
:103B7000531CF2CF0E94531C803851F1813809F454
:103B80004FC0823809F450C08839F1F080E00E94BB
:103B90007F1C5DCF0E94531C809301010E94531C27
:103BA000809302010E94A91C52CF0E94531C8033B3
:103BB00009F421C10E94531C0E94531C0E94531CF3
:103BC00080E00E947F1C43CF83E00E947F1C3FCF98
:103BD00082E00E947F1C3BCF0E94531C803209F080
:103BE00060CF8091C00085FFFCCFD092C60080914D
:103BF000C00085FFFCCFC092C6008091C00085FF49
:103C0000FCCFB092C6008091C00085FFFCCFA0928F
:103C1000C6008091C00085FFFCCF9092C60017CFF0
:103C200081E00E947F1C13CF80E10E947F1C0FCF98
:103C30000E94531C809304010E94531C8093030133
:103C40008091010190910201880F991F90930201C8
:103C5000809301010E94531C853409F4BEC08091F9
:103C600005018E7F809305010E94531C803209F06C
:103C7000EECE8091C00085FFFCCFD092C6000091AF
:103C800003011091040101151105B9F1809105019D
:103C9000B82FB170A82FA695A170E0910101F09105
:103CA00002019F012F5F3F4FB90140E050E0BB236D
:103CB000A9F4AA2339F494918091C00085FFFCCF28
:103CC0009093C6004F5F5F4FCB010196F9014017FB
:103CD000510778F4BC012F5F3F4FE9CFF999FECF30
:103CE000F2BDE1BDF89A90B58091C00085FFFCCF90
:103CF000E7CF70930201609301018091C00085FFBE
:103D0000FCCF20CF0E94531C809304010E94531CBF
:103D100080930301809105018E7F809305010E94AD
:103D2000531C853429F4809105018160809305013D
:103D30008091030190910401892B89F000E010E04B
:103D40000E94531CF801EA5FFE4F80830F5F1F4FF4
:103D500080910301909104010817190788F30E94CC
:103D6000531C803209F09DCE8091050180FF54C024
:103D70004091010150910201440F551F50930201DF
:103D80004093010160910301709104016115710577
:103D9000C9F0E6E0F1E09A01DB01AE0FBF1FF9992F
:103DA000FECF32BD21BD819180BDFA9AF99A2F5F75
:103DB0003F4FEA17FB0799F7460F571F5093020131
:103DC000409301018091C00085FFFCCFD092C600D6
:103DD0008091C00085FFFCCFB5CE80910501816048
:103DE0008093050141CF0E94A91C88E08093600068
:103DF000FFCF0995EECD0E94531C0E94531C182F33
:103E00000E94531C112309F477C0113009F470C0CB
:103E100086E00E947F1C1BCE809102018823880FC0
:103E2000880B882180930602809101019091020104
:103E3000880F991F909302018093010180910301E3
:103E400080FF09C080910301909104010196909335
:103E5000040180930301F894F999FECF1127E091B2
:103E60000101F0910201C6E0D1E08091030190913F
:103E70000401103091F40091570001700130D9F322
:103E800003E000935700E89500915700017001305E
:103E9000D9F301E100935700E8950990199000913A
:103EA000570001700130D9F301E000935700E89505
:103EB0001395103498F011270091570001700130CC
:103EC000D9F305E000935700E89500915700017081
:103ED0000130D9F301E100935700E895329602973B
:103EE00009F0C7CF103011F00296E5CF11246ACF48
:103EF00084E90E947F1CABCD8EE10E947F1CA7CD80
:043F0000F894FFCF63
:0400000300003800C1
:00000001FF
