:103800000C94341C0C94511C0C94511C0C94511CA1
:103810000C94511C0C94511C0C94511C0C94511C74
:103820000C94511C0C94511C0C94511C0C94511C64
:103830000C94511C0C94511C0C94511C0C94511C54
:103840000C94511C0C94511C0C94511C0C94511C44
:103850000C94511C0C94511C0C94511C0C94511C34
:103860000C94511C0C94511C11241FBECFEFD4E0BA
:10387000DEBFCDBF11E0A0E0B1E0E6EBFFE302C0A8
:1038800005900D92A234B107D9F712E0A2E4B1E09D
:1038900001C01D92A934B107E1F70E94E31C0C940A
:1038A000D91F0C94001C809142018F5F80934201CC
:1038B000853019F4E0E0F0E009950895EF92FF9269
:1038C0000F931F93CF93DF93EE24FF248701C0E073
:1038D000D0E010C00894E11CF11C011D111D81E213
:1038E000E81681EAF80687E0080780E0180710F07C
:1038F000FE0109958091C00087FFECCF8091C60042
:10390000DF91CF911F910F91FF90EF9008951F933A
:103910000E945E1C182F8091C00085FFFCCF109381
:10392000C600113614F0175503C010330CF01053B5
:103930000E945E1C982F8091C00085FFFCCF909361
:10394000C600913614F0975503C090330CF0905395
:103950001295107F892F810F1F9108951F93182FA3
:103960000E945E1C8032A9F48091C00085FFFCCFCC
:1039700084E18093C6008091C00085FFFCCF109346
:10398000C6008091C00085FFFCCF80E18093C60017
:1039900002C00E94531C1F9108950E945E1C803239
:1039A00079F48091C00085FFFCCF84E18093C6004C
:1039B0008091C00085FFFCCF80E18093C600089510
:1039C0000E94531C08953F924F925F926F927F9294
:1039D0008F929F92AF92BF92CF92DF92EF92FF921F
:1039E0000F931F93CF93DF9324B714BE8091600091
:1039F0008861809360001092600030E0F901E2700D
:103A0000F07021FF099589E18093C4001092C500F0
:103A100088E18093C10086E08093C2005098589A54
:103A2000559A21E048EC50E010C05D9A88EE93E092
:103A3000FA013197F1F70197D9F75D9888EE93E095
:103A4000FA013197F1F70197D9F7215070F7B4E1F6
:103A5000FB2EA0E1EA2EDD24D3940E945E1C80336D
:103A600009F45EC0813399F40E945E1C803209F033
:103A70009DC2E7E3F1E007C08091C00085FFFCCF65
:103A800031969093C60090819923B1F7E6CF8034A8
:103A900031F40E945E1C863808F442C028C081348C
:103AA00099F40E945E1C803811F482E0AEC1813826
:103AB00011F481E0AAC1823811F480E1A6C18839ED
:103AC00009F0A2C183E0A1C1823439F414E102C03B
:103AD0000E945E1C1150E0F723C0853459F40E9407
:103AE0005E1C0E945E1C0E945E1C0E945E1C0E9466
:103AF0005E1C16C08035A1F0823591F0813531F41D
:103B00000E94CD1C88E080936000FFCF853559F47A
:103B10000E945E1C809343010E945E1C80934401BE
:103B20000E94CD1C9ACF8635E1F40E945E1C803342
:103B300039F00E945E1C0E945E1C0E945E1C64C1E3
:103B40000E945E1C0E945E1C182F0E945E1C1123A6
:103B500011F48EE15AC1113011F484E956C186E0A6
:103B600054C1843609F0D2C00E945E1C8093460185
:103B70000E945E1C80934501809147018E7F809357
:103B800047010E945E1C853429F4809147018160C1
:103B90008093470100E010E008C00E945E1CF8011D
:103BA000E85BFE4F80830F5F1F4F8091450190912E
:103BB00046010817190788F30E945E1C803209F03D
:103BC000F5C18091470180FF2BC0209143013091C6
:103BD0004401220F331F309344012093430160912D
:103BE00045017091460140E050E010C0F999FECFC8
:103BF000CA01820F931F92BD81BDFA01E85BFE4F9F
:103C0000808180BDFA9AF99A4F5F5F4F4617570738
:103C100068F3260F371F30934401209343016BC094
:103C2000809144018823880F880B8D21809348025E
:103C30008091430190914401880F991F9093440112
:103C4000809343018091450180FF09C08091450127
:103C50009091460101969093460180934501F89416
:103C6000F999FECF1127E0914301F0914401C8E496
:103C7000D1E08091450190914601103091F400917E
:103C8000570001700130D9F303E000935700E89525
:103C90000091570001700130D9F301E10093570002
:103CA000E895099019900091570001700130D9F3FF
:103CB00001E000935700E8951395103498F0112710
:103CC0000091570001700130D9F305E000935700CF
:103CD000E8950091570001700130D9F301E100939C
:103CE0005700E8953296029709F0C7CF103011F0CF
:103CF0000296E5CF11248091C00085FFFCCFF092A1
:103D0000C6008091C00085FFFCCF64C0843709F0F5
:103D100064C00E945E1C809346010E945E1C8093DA
:103D200045018091430190914401880F991F909320
:103D30004401809343010E945E1C909147018534A9
:103D400011F4916001C09E7F909347010E945E1C18
:103D5000803209F082CE8091C00085FFFCCFF092C6
:103D6000C600A0914501B091460180914701782F8E
:103D70007170682F66956170209143013091440104
:103D8000F90140E050E019C0772359F0F999FECFCE
:103D9000F2BDE1BDF89A90B58091C00085FFFCCFDF
:103DA00007C0662339F494918091C00085FFFCCF51
:103DB0009093C6004F5F5F4F31964A175B0720F321
:103DC0002A0F3B1F30934401209343018091C00090
:103DD00085FFFCCFE092C60040CE853799F40E9463
:103DE0005E1C803209F0E2C0E1E3F1E007C080919F
:103DF000C00085FFFCCF31969093C6009081992337
:103E0000B1F72BCE863721F480E00E94AE1C25CE80
:103E1000813209F0CBC00E945E1C813209F01DCEB8
:103E20000E945E1C813209F018CE559A5D98E0E040
:103E3000F1E007C08091C00085FFFCCF9093C600E1
:103E4000319690819923B1F76AE0362E5DE0452ED8
:103E50004AE3542E30E2632EAA24BB242DE3722EB3
:103E600090E3892E81E3982E8091C00085FFFCCFDE
:103E70003092C6008091C00085FFFCCF4092C60002
:103E80008091C00085FFFCCF5092C6008091C00099
:103E900085FFFCCF6092C6000E945E1C982F809127
:103EA000C00085FFFCCF9093C600943791F44D9BE2
:103EB00008C05D988091C00085FFFCCF9092C6003D
:103EC000D3CF5D9A8091C00085FFFCCF8092C60061
:103ED000CBCF9237B1F50E945E1C982F8091C00025
:103EE00085FFFCCF9093C6000E94871C182F0E946C
:103EF000871C982F8091C00085FFFCCF7092C60070
:103F0000D12ECC24F601E90FF11D8081982F9595D3
:103F1000959595959595905D8F708A301CF0282F1A
:103F2000295A02C0282F205D8091C00085FFFCCF58
:103F30009093C6008091C00085FFFCCF2093C600FF
:103F400093CF973709F50E945E1C982F8091C0008F
:103F500085FFFCCF9093C6000E94871C082F0E940B
:103F6000871C182F0E945E1C982F8091C00085FF2F
:103F7000FCCF9093C6000E94871CF02EEE24F70120
:103F8000E10FF11D808370CF953751F40E945E1CC4
:103F9000982F8091C00085FFFCCF9093C600F6CF8C
:103FA0009A3609F061CFF50109955ECF0E94531C46
:063FB00054CDF894FFCF90
:103FB60041546D656761424F4F54202F2048657804
:103FC600627269676874202D202843292070746501
:103FD600736172696B202D203133303631370A0D0B
:103FE60000141E94061000144156522049535010D6
:023FF6000000C9
:0400000300003800C1
:00000001FF
