:103800000C94341C0C94511C0C94511C0C94511CA1
:103810000C94511C0C94511C0C94511C0C94511C74
:103820000C94511C0C94511C0C94511C0C94511C64
:103830000C94511C0C94511C0C94511C0C94511C54
:103840000C94511C0C94511C0C94511C0C94511C44
:103850000C94511C0C94511C0C94511C0C94511C34
:103860000C94511C0C94511C11241FBECFEFD4E0BA
:10387000DEBFCDBF11E0A0E0B1E0E6EBFDE302C0AA
:1038800005900D92A031B107D9F712E0A0E1B1E0A7
:1038900001C01D92A731B107E1F70E94BC1C0C9436
:1038A000D91E0C94001C809110018F5F8093100131
:1038B000853019F4E0E0F0E009950895EF92FF9269
:1038C0000F931F93CF93DF93EE24FF248701C0E073
:1038D000D0E010C00894E11CF11C011D111D81E213
:1038E000E81681EAF80687E0080780E0180710F07C
:1038F000FE0109958091C00087FFECCF8091C60042
:10390000DF91CF911F910F91FF90EF9008951F933A
:10391000182F0E945E1C8032A9F48091C00085FFA0
:10392000FCCF84E18093C6008091C00085FFFCCF6E
:103930001093C6008091C00085FFFCCF80E180938A
:10394000C60002C00E94531C1F9108950E945E1C75
:10395000803279F48091C00085FFFCCF84E18093B0
:10396000C6008091C00085FFFCCF80E18093C60037
:1039700008950E94531C0895DF92EF92FF920F93D7
:103980001F93CF93DF9324B714BE809160008861AA
:10399000809360001092600030E0F901E270F070F6
:1039A00021FF099589E18093C4001092C50088E148
:1039B0008093C10086E08093C2005098589A559A2F
:1039C00021E048EC50E010C05D9A88EE93E0FA01E7
:1039D0003197F1F70197D9F75D9888EE93E0FA01F6
:1039E0003197F1F70197D9F7215070F764E1F62E7E
:1039F00050E1E52EDD24D3940E945E1C803309F44F
:103A00005EC0813399F40E945E1C803209F0CEC101
:103A1000E6E0F1E007C08091C00085FFFCCF319661
:103A20009093C60090819923B1F7E6CF803431F4AA
:103A30000E945E1C863808F442C028C0813499F484
:103A40000E945E1C803811F482E0ADC1813811F40F
:103A500081E0A9C1823811F480E1A5C1883909F05B
:103A6000A1C183E0A0C1823439F414E102C00E94F4
:103A70005E1C1150E0F723C0853459F40E945E1C8F
:103A80000E945E1C0E945E1C0E945E1C0E945E1CC6
:103A900016C08035A1F0823591F0813531F40E9455
:103AA000A61C88E080936000FFCF853559F40E9402
:103AB0005E1C809311010E945E1C809312010E9483
:103AC000A61C9ACF8635E1F40E945E1C803339F043
:103AD0000E945E1C0E945E1C0E945E1C63C10E94CC
:103AE0005E1C0E945E1C182F0E945E1C112311F4A4
:103AF0008EE159C1113011F484E955C186E053C1FA
:103B0000843609F0D2C00E945E1C809314010E948A
:103B10005E1C80931301809115018E7F80931501A7
:103B20000E945E1C853429F4809115018160809388
:103B3000150100E010E008C00E945E1CF801EA5E7A
:103B4000FE4F80830F5F1F4F8091130190911401EE
:103B50000817190788F30E945E1C803209F026C1FD
:103B60008091150180FF2BC020911101309112012D
:103B7000220F331F30931201209311016091130122
:103B80007091140140E050E010C0F999FECFCA01D5
:103B9000820F931F92BD81BDFA01EA5EFE4F8081C4
:103BA00080BDFA9AF99A4F5F5F4F4617570768F33F
:103BB000260F371F30931201209311016BC08091A3
:103BC00012018823880F880B8D2180931602809123
:103BD000110190911201880F991F90931201809307
:103BE00011018091130180FF09C080911301909110
:103BF000140101969093140180931301F894F9999C
:103C0000FECF1127E0911101F0911201C6E1D1E040
:103C10008091130190911401103091F4009157009C
:103C200001700130D9F303E000935700E89500914B
:103C3000570001700130D9F301E100935700E89576
:103C4000099019900091570001700130D9F301E0FB
:103C500000935700E8951395103498F011270091C0
:103C6000570001700130D9F305E000935700E89543
:103C70000091570001700130D9F301E10093570022
:103C8000E8953296029709F0C7CF103011F00296EE
:103C9000E5CF11248091C00085FFFCCFF092C600D3
:103CA0008091C00085FFFCCF64C0843709F064C0F8
:103CB0000E945E1C809314010E945E1C809313017D
:103CC0008091110190911201880F991F9093120118
:103CD000809311010E945E1C90911501853411F4AE
:103CE000916001C09E7F909315010E945E1C8032FE
:103CF00009F082CE8091C00085FFFCCFF092C60013
:103D0000A0911301B091140180911501782F717069
:103D1000682F669561702091110130911201F901AF
:103D200040E050E019C0772359F0F999FECFF2BD79
:103D3000E1BDF89A90B58091C00085FFFCCF07C027
:103D4000662339F494918091C00085FFFCCF909355
:103D5000C6004F5F5F4F31964A175B0720F32A0F6B
:103D60003B1F30931201209311018091C00085FF09
:103D7000FCCFE092C60040CE853791F40E945E1CD5
:103D80008032A1F4E0E0F1E007C08091C00085FF3F
:103D9000FCCF31969093C60090819923B1F72CCE39
:103DA000863721F480E00E94871C26CE0E94531C97
:063DB00023CEF894FFCFC2
:103DB600141E940610001441565220495350100008
:0400000300003800C1
:00000001FF
