:103800000C94341C0C94511C0C94511C0C94511CA1
:103810000C94511C0C94511C0C94511C0C94511C74
:103820000C94511C0C94511C0C94511C0C94511C64
:103830000C94511C0C94511C0C94511C0C94511C54
:103840000C94511C0C94511C0C94511C0C94511C44
:103850000C94511C0C94511C0C94511C0C94511C34
:103860000C94511C0C94511C11241FBECFEFD4E0BA
:10387000DEBFCDBF11E0A0E0B1E0ECE7FEE302C0A7
:1038800005900D92A030B107D9F712E0A0E0B1E0A9
:1038900001C01D92A730B107E1F70E94C11C0C9432
:1038A0003C1F0C94001CEF92FF920F931F93CF9339
:1038B000DF93EE24FF248701C0E0D0E010C008941D
:1038C000E11CF11C011D111D81E2E81681EAF806D8
:1038D00087E0080780E0180710F0FE010995809145
:1038E000C00087FFECCF8091C600DF91CF911F9180
:1038F0000F91FF90EF9008951F93182F0E94531C73
:103900008032A9F48091C00085FFFCCF84E18093D0
:10391000C6008091C00085FFFCCF1093C600809147
:10392000C00085FFFCCF80E18093C6000AC0809173
:1039300000018F5F80930001853019F4E0E0F0E032
:1039400009951F9108950E94531C803279F480914B
:10395000C00085FFFCCF84E18093C6008091C00049
:1039600085FFFCCF80E18093C6000895809100011F
:103970008F5F80930001853019F4E0E0F0E0099555
:1039800008952F923F924F925F926F927F928F9203
:103990009F92AF92BF92CF92DF92EF92FF920F93DE
:1039A0001F93CF93DF9324B714BE8091600088618A
:1039B000809360001092600030E0F901E270F070D6
:1039C00021FF099589E18093C4001092C50088E128
:1039D0008093C10086E08093C2005098589A559A0F
:1039E00021E048EC50E010C05D9A88EE93E0FA01C7
:1039F0003197F1F70197D9F75D9888EE93E0FA01D6
:103A00003197F1F70197D9F7215070F7EE24FF2491
:103A100094E1C92E8EE1282E06E0B02E10E1D12EC1
:103A2000AA24A394B1E49B2EA6E58A2EF2E57F2E6C
:103A3000E0E26E2E79E4572E63E5462E50E5352EF2
:103A40000E94531C803309F485C08133D1F50E9454
:103A5000531C803209F005C28091C00085FFFCCF65
:103A6000C092C6008091C00085FFFCCF9092C60036
:103A70008091C00085FFFCCF8092C6008091C0007D
:103A800085FFFCCF7092C6008091C00085FFFCCFFF
:103A90006092C6008091C00085FFFCCF5092C600A6
:103AA0008091C00085FFFCCF4092C6008091C0008D
:103AB00085FFFCCF3092C6008091C00085FFFCCF0F
:103AC000C7C1803431F40E94531C863808F442C0C8
:103AD00028C0813499F40E94531C803811F482E08C
:103AE000BDC1813811F481E0B9C1823811F480E19F
:103AF000B5C1883909F0B1C183E0B0C1823439F46D
:103B000014E102C00E94531C1150E0F723C0853419
:103B100059F40E94531C0E94531C0E94531C0E9483
:103B2000531C0E94531C16C08035A1F0823591F0C1
:103B3000813531F40E94A31C88E080936000FFCFA0
:103B4000853559F40E94531C809301010E94531C37
:103B5000809302010E94A31C73CF8635E1F40E947A
:103B6000531C803339F00E94531C0E94531C0E9446
:103B7000531C73C10E94531C0E94531C182F0E9497
:103B8000531C112311F48EE169C1113011F484E941
:103B900065C186E063C1843609F0D2C00E94531C1F
:103BA000809304010E94531C8093030180910501BE
:103BB0008E7F809305010E94531C853429F48091E7
:103BC000050181608093050100E010E008C00E94BB
:103BD000531CF801EA5FFE4F80830F5F1F4F8091F7
:103BE0000301909104010817190788F30E94531CE0
:103BF000803209F036C18091050180FF2BC02091F1
:103C0000010130910201220F331F309302012093F2
:103C10000101609103017091040140E050E010C087
:103C2000F999FECFCA01820F931F92BD81BDFA019F
:103C3000EA5FFE4F808180BDFA9AF99A4F5F5F4F2D
:103C40004617570768F3260F371F3093020120935A
:103C500001016BC0809102018823880F880B8A21A3
:103C6000809306028091010190910201880F991FB3
:103C700090930201809301018091030180FF09C0AC
:103C80008091030190910401019690930401809327
:103C90000301F894F999FECF1127E0910101F09109
:103CA0000201C6E0D1E0809103019091040110303F
:103CB00091F40091570001700130D9F303E00093B3
:103CC0005700E8950091570001700130D9F301E1E8
:103CD00000935700E89509901990009157000170E2
:103CE0000130D9F301E000935700E89513951034A3
:103CF00098F011270091570001700130D9F305E0C9
:103D000000935700E8950091570001700130D9F3F6
:103D100001E100935700E8953296029709F0C7CF6A
:103D2000103011F00296E5CF11248091C00085FF7C
:103D3000FCCFC092C6008091C00085FFFCCF88C038
:103D4000843709F062C00E94531C809304010E94D2
:103D5000531C809303018091010190910201880F0F
:103D6000991F90930201809301010E94531C90912E
:103D70000501853411F4916001C09E7F9093050187
:103D80000E94531C803209F05BCE8091C00085FFF9
:103D9000FCCFC092C600A0910301B09104018091B4
:103DA0000501782F7170682F66956170209101016F
:103DB00030910201F90140E050E019C0772359F039
:103DC000F999FECFF2BDE1BDF89A90B58091C0009F
:103DD00085FFFCCF07C0662339F494918091C00021
:103DE00085FFFCCF9093C6004F5F5F4F31964A1717
:103DF0005B0720F32A0F3B1F309302012093010140
:103E00008091C00085FFFCCF23C0853721F50E943B
:103E1000531C803231F58091C00085FFFCCFC092E9
:103E2000C6008091C00085FFFCCF2092C600809123
:103E3000C00085FFFCCF84E98093C6008091C0005C
:103E400085FFFCCFB092C6008091C00085FFFCCFFB
:103E5000D092C600F5CD863721F480E00E947C1C0C
:103E6000EFCD809100018F5F80930001853009F0D4
:0C3E7000E7CDF7010995E4CDF894FFCFF1
:0400000300003800C1
:00000001FF
