:1038000011241FBE94E08FEF9EBF8DBFA0E0B1E0FA
:10381000E2ECFDE381E002C005900D92A230B80712
:10382000D9F7A2E0B1E081E001C01D92A230B80753
:10383000E1F7ABC0141E940B10000A0D3A200041B2
:10384000546D656761424F4F54202F204865786260
:103850007269676874202D2028432920707465736D
:103860006172696B202D203133303631370A0D00FB
:10387000144156522049535010008EB38F5F8EBBB7
:10388000853019F4E0E0F0E009950895EF92FF9299
:103890000F931F9380910001E82EFF2400E010E0B9
:1038A000A801970112C02E0D3F1D401F511FDA01C4
:1038B000C9018E199F09A00BB10B8152914AA740F3
:1038C000B04018F0E0E0F0E009958091C00087FF7B
:1038D000EACF8091C6001F910F91FF90EF9008955D
:1038E0001F93182FD3DF8032A9F48091C00085FF89
:1038F000FCCF84E18093C6008091C00085FFFCCF9F
:103900001093C6008091C00085FFFCCF80E18093BA
:10391000C60001C0B2DF1F910895B8DF803279F48C
:103920008091C00085FFFCCF84E18093C600809128
:10393000C00085FFFCCF80E18093C60008959DDF25
:103940000895A4DF982F8091C00085FFFCCF90934D
:10395000C600892F08951F93F4DF81361CF0182FBD
:10396000175506C080331CF0182F105301C0182FB4
:10397000E8DF813614F0875503C080330CF08053A4
:103980001295107F810F1F91089524B714BE809166
:1039900060008861809360001092600030E0F9015F
:1039A000E270F07021FF099589E18093C4001092C4
:1039B000C50088E18093C10086E08093C2005098E2
:1039C000589A559A21E048EC50E010C05D9A88EE74
:1039D00093E0FA013197F1F70197D9F75D9888EEF6
:1039E00093E0FA013197F1F70197D9F7215070F779
:1039F00054E1652E40E1742E32E0832E31E0932EA7
:103A000045DF803309F450C0813389F43FDF8032D1
:103A100009F0D5C1E0E7F8E306C08091C00085FF5A
:103A2000FCCF9093C60095919923B9F7E9CF8034E4
:103A300021F42CDF8638C0F122C0813491F426DFD6
:103A4000803811F482E02AC1813811F481E026C166
:103A5000823811F480E122C1883909F01EC183E067
:103A60001DC1823431F414E101C010DF1150E8F7B8
:103A70001BC0853431F40ADF09DF08DF07DF06DF0A
:103A800013C0803589F0823579F0813529F445DF1E
:103A900088E080936000FFCF853541F4F7DEE82EA3
:103AA000F5DEF82EEE0CFF1C38DFAACF863529F59F
:103AB000EDDE082FEBDE182FE9DED82EE7DE00332F
:103AC00049F4112339F4ED2DF0E0EB5CF74CE4916F
:103AD0008E2FE4C0802F877F803509F0DEC0E12F74
:103AE000F0E0E77F309709F0D8C003FBE0F913FB63
:103AF000E1F989E087BF8491D1C0843609F07BC0A9
:103B0000C5DEB82EC3DED82EA82EC0DEC82EC2E079
:103B1000D1E085010C0F1D1F02C0B8DE8993C017CC
:103B2000D107D9F7B3DE803209F049C185E4C81660
:103B3000E1F480E090E013C09C012E0D3F1DFC01DC
:103B4000EE5FFE4FE081F999FECF1FBA32BD21BD75
:103B5000E0BD0FB6F894FA9AF99A0FBE01968A154D
:103B60009B0550F3EA0CFB1C3BC0D0FE03C008943D
:103B7000A11CB11CF999FECF20E0D401C501F701C9
:103B8000203061F437B730FDFDCF33E037BFE89523
:103B900037B730FDFDCF31E137BFE8950D901D906F
:103BA00037B730FDFDCF31E037BFE895239520349E
:103BB00068F0222737B730FDFDCF35E037BFE895F5
:103BC00037B730FDFDCF31E137BFE8953296029728
:103BD00009F0D6CF203011F00296EBCF11247F01EF
:103BE0008091C00085FFFCCF6092C6008091C0002C
:103BF00085FFFCCF3AC0843709F03AC047DE082F72
:103C000045DE182F43DED82E41DE803209F0F8CE93
:103C10008091C00085FFFCCF6092C600212F302F1D
:103C2000F70140E050E018C085E4D81659F4F9993E
:103C3000FECFF2BDE1BDF89A90B58091C00085FF3E
:103C4000FCCF05C094918091C00085FFFCCF90937C
:103C5000C6004F5F5F4F31964217530728F3E20EBD
:103C6000F31E8091C00085FFFCCF7092C600C8CEC5
:103C7000853789F40BDE803209F0A1C0E4E3F8E374
:103C800006C08091C00085FFFCCF9093C60095913F
:103C90009923B9F7B5CE863719F480E021DEB0CE8E
:103CA000813209F08CC0F2DD813209F0A9CEEEDD5F
:103CB000813209F0A5CE10920001559A5D9AEFE38A
:103CC000F8E306C08091C00085FFFCCF9093C6004A
:103CD00095919923B9F72DE3B22E90E3C92E81E394
:103CE000D82EEAE3F8E306C08091C00085FFFCCF40
:103CF0009093C60095919923B9F723DE843791F408
:103D00004D9908C05D9A8091C00085FFFCCFD0928C
:103D1000C600E7CF5D988091C00085FFFCCFC092C0
:103D2000C600DFCF823771F50CDE15DE182F13DEEB
:103D3000982F8091C00085FFFCCFB092C600F12E75
:103D4000EE24F701E90FF11D8081982F92959F7065
:103D50009A3010F0995A01C0905D8F708A3018F037
:103D6000E82FE95A02C0E82FE05D8091C00085FF8E
:103D7000FCCF9093C6008091C00085FFFCCFE093FC
:103D8000C600AFCF873771F4DCDDE5DD182FE3DD4A
:103D9000082FD7DDE0DDD12FC0E0FE01E00FF11DDF
:103DA00080839FCF853729F481E080930001C9DDAE
:103DB000FECF8A3609F095CFE0E0F0E009955DDDB1
:023DC0001FCE14
:023DC2000100FE
:0400000300003800C1
:00000001FF
