:103C000011241FBE94E08FEF9EBF8DBF5DC0141EB8
:103C1000940B1000144156522049535010008EB39B
:103C20008F5F8EBB853019F4E0E0F0E009950895D0
:103C300020E030E040E050E00FC02F5F3F4F4F4F9B
:103C40005F4F213281EA380787E0480780E0580754
:103C500019F4E0E0F0E009958091C00087FFEDCF16
:103C60008091C60008951F93182FE2DF8032A9F4D7
:103C70008091C00085FFFCCF84E18093C6008091D5
:103C8000C00085FFFCCF1093C6008091C00085FF67
:103C9000FCCF80E18093C60001C0C1DF1F91089571
:103CA000C7DF803279F48091C00085FFFCCF84E1CA
:103CB0008093C6008091C00085FFFCCF80E1809397
:103CC000C6000895ACDF089524B714BE809160004B
:103CD0008861809360001092600030E0F901E2702A
:103CE000F07021FF099589E18093C4001092C5000E
:103CF00088E18093C10086E08093C2005098589A72
:103D0000559A21E048EC50E010C05D9A88EE93E0AF
:103D1000FA013197F1F70197D9F75D9888EE93E0B2
:103D2000FA013197F1F70197D9F7215070F724E1A3
:103D3000722E90E1692E80E0882E81E0982E78DF47
:103D4000803309F450C0813389F472DF803209F086
:103D500045C1E4E1FCE306C08091C00085FFFCCFD3
:103D60009093C60095919923B9F7E9CF803421F457
:103D70005FDF8638C0F122C0813491F459DF80388A
:103D800011F482E029C1813811F481E025C1823823
:103D900011F480E121C1883909F01DC183E01CC103
:103DA000823431F414E101C043DF1150E8F71BC045
:103DB000853431F43DDF3CDF3BDF3ADF39DF13C0D0
:103DC000803589F0823579F0813529F469DF88E022
:103DD00080936000FFCF853541F42ADFE82E28DF8D
:103DE000F82EEE0CFF1C5CDFAACF863529F520DF0C
:103DF000082F1EDF182F1CDFD82E1ADF003349F4DE
:103E0000112339F4ED2DF0E0E15FF34CE4918E2FB6
:103E1000E3C0802F877F803509F0DDC0E12FF0E01F
:103E2000E77F309709F0D7C003FBE0F913FBE1F916
:103E300089E087BF8491D0C0843609F07BC0F8DE6A
:103E4000B82EF6DED82EA82EF3DEC82EC0E0D1E0C4
:103E500085010C0F1D1F02C0EBDE8993C017D1072F
:103E6000D9F7E6DE803209F0B9C085E4C816E1F47E
:103E700080E090E013C09C012E0D3F1DFC01E0503E
:103E8000FF4FE081F999FECF1FBA32BD21BDE0BDE1
:103E90000FB6F894FA9AF99A0FBE01968A159B0507
:103EA00050F3EA0CFB1C3BC0D0FE03C00894A11CDD
:103EB000B11CF999FECF20E0D401C501F7012030F3
:103EC00061F437B730FDFDCF33E037BFE89537B742
:103ED00030FDFDCF31E137BFE8950D901D9037B72C
:103EE00030FDFDCF31E037BFE8952395203468F0F1
:103EF000222737B730FDFDCF35E037BFE89537B71C
:103F000030FDFDCF31E137BFE8953296029709F0D9
:103F1000D6CF203011F00296EBCF11247F01809193
:103F2000C00085FFFCCF7092C6008091C00085FF65
:103F3000FCCF3AC0843709F03AC07ADE082F78DE29
:103F4000182F76DED82E74DE803209F0F8CE8091FC
:103F5000C00085FFFCCF7092C600212F302FF701E3
:103F600040E050E018C085E4D81659F4F999FECF26
:103F7000F2BDE1BDF89A90B58091C00085FFFCCFFD
:103F800005C094918091C00085FFFCCF9093C6003E
:103F90004F5F5F4F31964217530728F3E20EF31E2F
:103FA0008091C00085FFFCCF6092C600C8CE8537E7
:103FB00081F43EDE803291F4EEE0FCE306C08091B5
:103FC000C00085FFFCCF9093C60095919923B9F767
:103FD000B6CE863719F480E046DEB1CE20DEAFCE15
:0400000300003C00BD
:00000001FF
