:1038000011241FBECFEFD4E0DEBFCDBF11E0A0E09A
:10381000B1E0E4EBFDE302C005900D92A230B107E8
:10382000D9F711E0A2E0B1E001C01D92A330B107C9
:10383000E1F724B714BE8091600088618093600036
:103840001092600030E0F901E270F07021FF0995FC
:1038500089E18093C4001092C50088E18093C10083
:1038600086E08093C2005098589A559A21E048EC1F
:1038700050E010C05D9A88EE93E0FA013197F1F7BD
:103880000197D9F75D9888EE93E0FA013197F1F747
:103890000197D9F7215070F7F4E15F2EE0E14E2E49
:1038A00073E0672E71E0772EE3D1803309F44EC0C8
:1038B000813389F4DDD1803209F0CDC1EAEAFDE33C
:1038C00006C08091C00085FFFCCF9093C600959103
:1038D0009923B9F7E9CF803421F4CAD18638B0F101
:1038E00022C0813491F4C4D1803811F482E022C125
:1038F000813811F481E01EC1823811F480E11AC1CF
:10390000883909F016C183E015C1823431F414E11D
:1039100001C0AED11150E8F719C0853431F4A8D1F7
:10392000A7D1A6D1A5D1A4D111C0803579F0823517
:1039300069F0813529F407D288E080936000FFCFD9
:10394000853531F495D1A82E93D1B82EFCD1ACCFCA
:103950008635A9F48DD1803321F08AD189D188D1DF
:10396000E8C086D185D1182F83D1112311F48EE1BF
:10397000E1C0113011F484E9DDC08BE0DBC0843696
:1039800009F083C075D1C82E73D1D82E882E70D17E
:10399000982E0D2D1C2DC3E0D1E07E01E00EF11E0E
:1039A00002C066D18993CE15DF05D9F761D1803287
:1039B00009F051C1A501440F551F85E49816E9F49B
:1039C00080E090E013C09C01240F351FFC01ED5FE7
:1039D000FE4FE081F999FECF1FBA32BD21BDE0BD97
:1039E0000FB6F894FA9AF99A0FBE019680179107CC
:1039F00050F35801A40EB51E3DC0D0FE04C0C8014E
:103A00000196882EC92EF999FECF882D9C2DE301B1
:103A1000FA013327303061F427B720FDFDCF23E0D2
:103A200027BFE89527B720FDFDCF21E127BFE89507
:103A30000990199027B720FDFDCF21E027BFE89519
:103A40003395303468F0332727B720FDFDCF25E0CC
:103A500027BFE89527B720FDFDCF21E127BFE895D7
:103A60003296029709F0D6CF303011F00296EBCFA4
:103A700011245F018091C00085FFFCCF5092C600E9
:103A80008091C00085FFFCCF3CC0843709F03CC06A
:103A9000EFD0082FEDD0182FAA0CBB1CE9D0F82EC0
:103AA000E7D0803209F000CF8091C00085FFFCCFC5
:103AB0005092C600212F302FF50140E050E018C091
:103AC00085E4F81659F4F999FECFF2BDE1BDF89AF4
:103AD00090B58091C00085FFFCCF05C09491809186
:103AE000C00085FFFCCF9093C6004F5F5F4F3196BB
:103AF0004217530728F3A20EB31E8091C00085FF22
:103B0000FCCF4092C600D0CE853789F4B1D0803248
:103B100009F0A1C0E4EAFDE306C08091C00085FF82
:103B2000FCCF9093C60095919923B9F7BDCE863707
:103B300019F480E0EBD0B8CE813209F08CC098D077
:103B4000813209F0B1CE94D0813209F0ADCE10921D
:103B50000001559A5D9AE3E7FDE306C08091C0003D
:103B600085FFFCCF9093C60095919923B9F72DE37B
:103B7000B22E90E3C92E81E3D82EEEE6FDE306C017
:103B80008091C00085FFFCCF9093C600959199234A
:103B9000B9F798D0843791F44D9908C05D9A809117
:103BA000C00085FFFCCFD092C600E7CF5D98809122
:103BB000C00085FFFCCFC092C600DFCF823771F511
:103BC00081D08AD0182F88D0982F8091C00085FF8F
:103BD000FCCFB092C600F12EEE24F701E90FF11DE3
:103BE0008081982F92959F709A3010F0995A01C059
:103BF000905D8F708A3018F0E82FE95A02C0E82FE4
:103C0000E05D8091C00085FFFCCF9093C60080915D
:103C1000C00085FFFCCFE093C600AFCF873771F4BB
:103C200051D05AD0182F58D0082F4CD055D0D12F62
:103C3000C0E0FE01E00FF11D80839FCF853729F49E
:103C400081E0809300013ED0FECF8A3609F095CF07
:103C5000E0E0F0E0099501D027CE809102018F5F6E
:103C600080930201853019F4E0E0F0E009950895B1
:103C7000EF92FF920F931F9380910001E82EFF2493
:103C800000E010E0A801970112C02E0D3F1D401F5B
:103C9000511FDA01C9018E199F09A00BB10B815286
:103CA000914AA740B04018F0E0E0F0E0099580911B
:103CB000C00087FFEACF8091C6001F910F91FF904F
:103CC000EF900895D5DF982F8091C00085FFFCCF3D
:103CD0009093C600892F08951F93F4DF81361CF05E
:103CE000182F175506C080331CF0182F105301C031
:103CF000182FE8DF813614F0875503C080330CF0AD
:103D000080531295107F810F1F9108951F93182FD4
:103D1000AFDF8032A9F48091C00085FFFCCF84E141
:103D20008093C6008091C00085FFFCCF1093C60031
:103D30008091C00085FFFCCF80E18093C60001C068
:103D40008CDF1F91089594DF803279F48091C00058
:103D500085FFFCCF84E18093C6008091C00085FF81
:103D6000FCCF80E18093C600089577DF08950A0DA7
:103D70003A200041546D656761424F4F54202F2017
:103D8000486578627269676874202D20284329206D
:103D9000707465736172696B202D20313330363158
:103DA000370A0D00141E940B10001441565220497E
:043DB000535010005C
:023DB40001000C
:0400000300003800C1
:00000001FF
