:103C000011241FBECFEFD4E0DEBFCDBF11E0A0E096
:103C1000B1E0E8EFFFE302C005900D92A030B107DC
:103C2000D9F711E0A0E0B1E001C01D92A130B107C9
:103C3000E1F724B714BE8091600088618093600032
:103C40001092600030E0F901E270F07021FF0995F8
:103C500089E18093C4001092C50088E18093C1007F
:103C600086E08093C2005098589A559A21E048EC1B
:103C700050E010C05D9A88EE93E0FA013197F1F7B9
:103C80000197D9F75D9888EE93E0FA013197F1F743
:103C90000197D9F7215070F744E1542E30E1432EBB
:103CA00021E0622E21E0722E53D1803309F44EC000
:103CB000813389F44DD1803209F03DC1EEEEFFE34E
:103CC00006C08091C00085FFFCCF9093C6009591FF
:103CD0009923B9F7E9CF803421F43AD18638B0F18D
:103CE00022C0813491F434D1803811F482E021C1B2
:103CF000813811F481E01DC1823811F480E119C1CD
:103D0000883909F015C183E014C1823431F414E11B
:103D100001C01ED11150E8F719C0853431F418D113
:103D200017D116D115D114D111C0803579F0823553
:103D300069F0813529F444D188E080936000FFCF99
:103D4000853531F405D1A82E03D1B82E39D1ACCFA9
:103D50008635A9F4FDD0803321F0FAD0F9D0F8D01F
:103D6000E7C0F6D0F5D0182FF3D0112311F48EE16F
:103D7000E0C0113011F484E9DCC08BE0DAC0843695
:103D800009F083C0E5D0C82EE3D0D82E882EE0D02D
:103D9000982E0D2D1C2DC1E0D1E07E01E00EF11E0C
:103DA00002C0D6D08993CE15DF05D9F7D1D08032A5
:103DB00009F0C1C0A501440F551F85E49816E9F428
:103DC00080E090E013C09C01240F351FFC01EF5FE1
:103DD000FE4FE081F999FECF1FBA32BD21BDE0BD93
:103DE0000FB6F894FA9AF99A0FBE019680179107C8
:103DF00050F35801A40EB51E3DC0D0FE04C0C8014A
:103E00000196882EC92EF999FECF882D9C2DE301AD
:103E1000FA013327303061F427B720FDFDCF23E0CE
:103E200027BFE89527B720FDFDCF21E127BFE89503
:103E30000990199027B720FDFDCF21E027BFE89515
:103E40003395303468F0332727B720FDFDCF25E0C8
:103E500027BFE89527B720FDFDCF21E127BFE895D3
:103E60003296029709F0D6CF303011F00296EBCFA0
:103E700011245F018091C00085FFFCCF5092C600E5
:103E80008091C00085FFFCCF3CC0843709F03CC066
:103E90005FD0082F5DD0182FAA0CBB1C59D0F82E6C
:103EA00057D0803209F000CF8091C00085FFFCCF51
:103EB0005092C600212F302FF50140E050E018C08D
:103EC00085E4F81659F4F999FECFF2BDE1BDF89AF0
:103ED00090B58091C00085FFFCCF05C09491809182
:103EE000C00085FFFCCF9093C6004F5F5F4F3196B7
:103EF0004217530728F3A20EB31E8091C00085FF1E
:103F0000FCCF4092C600D0CE853781F421D08032DC
:103F100091F4E8EEFFE306C08091C00085FFFCCF7E
:103F20009093C60095919923B9F7BECE863719F4C0
:103F300080E029D0B9CE01D0B7CE809100018F5F4B
:103F400080930001853019F4E0E0F0E009950895D0
:103F500020E030E040E050E00FC02F5F3F4F4F4F78
:103F60005F4F213281EA380787E0480780E0580731
:103F700019F4E0E0F0E009958091C00087FFEDCFF3
:103F80008091C60008951F93182FE2DF8032A9F4B4
:103F90008091C00085FFFCCF84E18093C6008091B2
:103FA000C00085FFFCCF1093C6008091C00085FF44
:103FB000FCCF80E18093C60001C0BFDF1F91089550
:103FC000C7DF803279F48091C00085FFFCCF84E1A7
:103FD0008093C6008091C00085FFFCCF80E1809374
:103FE000C6000895AADF0895141E940B1000144112
:083FF000565220495350100005
:0400000300003C00BD
:00000001FF
