:103C000011241FBE8FEF94E09EBF8DBF4FC0141EC6
:103C1000940B100014415652204953501000982F15
:103C20008091C00085FFFCCF9093C600089520E0EE
:103C300030E040E050E00EC02F5F3F4F4F4F5F4FEE
:103C4000213281EA380787E0480780E0580711F4FD
:103C50000C9400008091C00087FFEECF8091C600D9
:103C60000895E5DF803211F480E0089585E1D7DF23
:103C70008EB38F5F8EBB853011F40C94000081E011
:103C800008951F93182FEDDF882331F484E1C7DFF7
:103C9000812FC5DF80E1C3DF1F910895E2DF882314
:103CA00021F484E1BCDF80E1BADF089594B714BE4B
:103CB000809160008861809360001092600091FDA7
:103CC00002C00C94000089E18093C4001092C500EA
:103CD00088E18093C10086E08093C2005098589A92
:103CE000559A21E048EC50E010C05D9A88EE93E0D0
:103CF000FA013197F1F70197D9F75D9888EE93E0D3
:103D0000FA013197F1F70197D9F7215070F7529ADC
:103D100080E0682E81E0782E8ADF803309F450C07D
:103D2000813369F49EDF8823B9F7C4E1DCE301C085
:103D300076DFFE018591EF018823D1F7EDCF803446
:103D400029F475DF863808F43BC022C0813491F431
:103D50006EDF803811F482E014C1813811F481E003
:103D600010C1823811F480E10CC1883909F008C112
:103D700083E007C1823431F414E101C058DF1150EF
:103D8000E8F71EC0853431F452DF51DF50DF4FDFDA
:103D90004EDF16C08035A1F0823591F0813529F4CF
:103DA0007DDF88E080936000FFCF853539F43FDF09
:103DB000E82E3DDFF82EEE0CFF1C02C0833511F417
:103DC0006DDFAACF863529F532DF082F30DF182FB7
:103DD0002EDFB82E2CDF003349F4112339F4EB2DFC
:103DE000F0E0E15FF34CE4918E2FCBC0802F877F12
:103DF000803509F0C5C0E12FF0E0E77F309709F08A
:103E0000BFC003FBE0F913FBE1F989E087BF8491B0
:103E1000B8C0843609F075C00ADFD82E08DFB82E86
:103E2000C82E05DFA82EC0E0D1E086010C0F1D1FB3
:103E300002C0FDDE8993C017D107D9F712DF8823AE
:103E400009F06ACF5A9AF5E4AF16E1F49701C6017A
:103E5000F601E050FF4F0FC04081F999FECF1FBA25
:103E600032BD21BD40BD0FB6F894FA9AF99A0FBE43
:103E70002F5F3F4F0197009779F7EC0CFD1CCC2486
:103E8000DD243BC0B0FE03C00894C11CD11CF999CD
:103E9000FECF20E0D301C601F701203061F437B72F
:103EA00030FDFDCF33E037BFE89537B730FDFDCFAC
:103EB00031E137BFE8950D901D9037B730FDFDCF4C
:103EC00031E037BFE8952395203468F0222737B7D3
:103ED00030FDFDCF35E037BFE89537B730FDFDCF7A
:103EE00031E137BFE8953296029709F0D6CF2030FE
:103EF00011F00296EBCF11247F015A9884E18FDEF6
:103F00002AC0843759F593DE982E91DE882E8FDEF5
:103F1000B82EA7DE882309F0FFCE84E180DE5D9A0B
:103F2000E701840110C0F5E4BF1639F4F999FECF1A
:103F3000D2BDC1BDF89A80B502C0FE0184916FDE8A
:103F40002196015010400115110569F7E80CF91C84
:103F5000882499245D9880E162DEDECE853771F495
:103F600080DE882309F0D8CECEE0DCE301C057DE46
:103F7000FE018591EF018823D1F7CECE863719F463
:103F800080E07FDEC9CE6DDE882311F482E147DE5A
:103F90008EB38F5F8EBB853009F0BECE0C940000CF
:023FA000089582
:0400000300003C00BD
:00000001FF
