:1038000011241FBE8FEF94E09EBF8DBFA0E0B1E0FA
:10381000E6E3FDE381E002C005900D92A230B80717
:10382000D9F7E2E0F1E081E001C01192E230F8075F
:10383000E1F79AC0141E940B10000A0D3A200041C3
:10384000546D656761424F4F54202F204865786260
:103850007269676874202D2028432920707465736D
:103860006172696B202D203133303631370A0D00FB
:1038700014415652204953501000982F8091C00097
:1038800085FFFCCF9093C6000895EF92FF920F93AF
:103890001F9380910001E82EFF2400E010E0A801B2
:1038A000970111C02E0D3F1D401F511FDA01C901A4
:1038B0008E199F09A00BB10B8152914AA740B040CD
:1038C00010F00C9400008091C00087FFEBCF809136
:1038D000C6001F910F91FF90EF900895D6DF8032C0
:1038E00011F480E0089585E1C8DF8EB38F5F8EBB51
:1038F000853011F40C94000081E008951F93182F77
:10390000EDDF882331F484E1B8DF812FB6DF80E179
:10391000B4DF1F910895E2DF882321F484E1ADDF55
:1039200080E1ABDF08951F93B0DF182FA6DF812F52
:103930001F9108951F93F7DF81361CF0182F17553C
:1039400006C080331CF0182F105301C0182FEBDF76
:10395000813614F0875503C080330CF080531295E4
:10396000107F810F1F91089594B714BE809160005D
:103970008861809360001092600091FD02C00C94F9
:10398000000089E18093C4001092C50088E1809313
:10399000C10086E08093C2005098589A559A21E061
:1039A00048EC50E010C05D9A88EE93E0FA01319740
:1039B000F1F70197D9F75D9888EE93E0FA01319716
:1039C000F1F70197D9F7215070F7529A82E0282E2B
:1039D00081E0382E5ADF8033C1F1813369F47EDF14
:1039E0008823C1F7C0E7D8E301C047DFFE01859116
:1039F000EF018823D1F7EECF803421F446DF8638FB
:103A000020F122C0813491F440DF803811F482E04B
:103A100013C1813811F481E00FC1823811F480E1C3
:103A20000BC1883909F007C183E006C1823431F443
:103A300014E101C02ADF1150E8F707C0853439F4DA
:103A400024DF23DF22DF21DF20DF65DFC3CF8035E6
:103A5000E1F38235D1F3813529F45DDF88E080938D
:103A60006000FFCF853539F410DFC82E0EDFD82E69
:103A7000CC0CDD1CEACF833541F3863529F505DF13
:103A8000082F03DF182F01DFF82EFFDE003349F483
:103A9000112339F4EF2DF0E0EB5CF74CE4918E2F1D
:103AA000CBC0802F877F803509F0C5C0E12FF0E0C3
:103AB000E77F309709F0BFC003FBE0F913FBE1F9A2
:103AC00089E087BF8491B8C0843609F075C0DDDE17
:103AD000B82EDBDEF82EA82ED8DEE82EC2E0D1E02C
:103AE00085010C0F1D1F02C0D0DE8993C017D107BE
:103AF000D9F7F4DE882309F06DCF5A9AF5E4EF1672
:103B0000E1F49601C501F501EE5FFE4F0FC0408163
:103B1000F999FECF1FBA32BD21BD40BD0FB6F89452
:103B2000FA9AF99A0FBE2F5F3F4F0197009779F7E6
:103B3000CA0CDB1CAA24BB243BC0F0FE03C00894C3
:103B4000A11CB11CF999FECF20E0D101C501F601FD
:103B5000203061F437B730FDFDCF33E037BFE89553
:103B600037B730FDFDCF31E137BFE8950D901D909F
:103B700037B730FDFDCF31E037BFE89523952034CE
:103B800068F0222737B730FDFDCF35E037BFE89525
:103B900037B730FDFDCF31E137BFE8953296029758
:103BA00009F0D6CF203011F00296EBCF11246F012F
:103BB0005A9884E162DE2AC0843759F566DE982E71
:103BC00064DE882E62DEF82E89DE882309F002CFBB
:103BD00084E153DE5D9AE601840110C0F5E4FF162E
:103BE00039F4F999FECFD2BDC1BDF89A80B502C0B3
:103BF000FE01849142DE219601501040011511050D
:103C000069F7C80CD91C882499245D9880E135DEB9
:103C1000E1CE853771F462DE882309F0DBCEC4E3A0
:103C2000D8E301C02ADEFE018591EF018823D1F798
:103C3000D1CE863719F480E061DECCCE813209F036
:103C40006CC023DE813209F0C5CE1FDE813209F05F
:103C5000C1CE10920001559A5D9ACFE3D8E301C01E
:103C60000CDEFE018591EF018823D1F7CAE3D8E38A
:103C700001C003DEFE018591EF018823D1F753DEF9
:103C8000843741F44D9903C05D9A81E328C05D9863
:103C900080E325C0823729F546DE4CDE182F4ADE48
:103CA000082F8DE3EADD712E6624F301E00FF11D8C
:103CB000E0818E2F82958F708A3018F0982F995A54
:103CC00002C0982F905D8E2F8F708A3018F0182FB9
:103CD000195A02C0182F105D892FCFDD812FCDDD3D
:103CE000C5CF873771F41FDE25DE182F23DE082F9E
:103CF0001ADE20DE512E4424F201E00FF11D8083F4
:103D0000B5CF853729F481E0809300010CDEFECF2A
:103D10008A3609F0ABCF0C940000E0DD882311F463
:103D200082E1ABDD8EB38F5F8EBB853009F052CE62
:063D30000C940000089550
:023D360001008A
:0400000300003800C1
:00000001FF
